{
  "_format": "hh-sol-artifact-1",
  "contractName": "Prestaciones",
  "sourceName": "contracts/Prestaciones.sol",
  "abi": [
    {
      "inputs": [
        {
          "internalType": "address",
          "name": "responsable_empresa",
          "type": "address"
        },
        {
          "internalType": "string",
          "name": "_nombreEmpresa",
          "type": "string"
        },
        {
          "internalType": "string",
          "name": "_idEmpresa",
          "type": "string"
        }
      ],
      "stateMutability": "nonpayable",
      "type": "constructor"
    },
    {
      "anonymous": false,
      "inputs": [
        {
          "indexed": true,
          "internalType": "address",
          "name": "trabajador",
          "type": "address"
        },
        {
          "indexed": false,
          "internalType": "uint256",
          "name": "monto",
          "type": "uint256"
        }
      ],
      "name": "DepositoPrestaciones",
      "type": "event"
    },
    {
      "anonymous": false,
      "inputs": [
        {
          "indexed": true,
          "internalType": "address",
          "name": "trabajador",
          "type": "address"
        },
        {
          "indexed": false,
          "internalType": "enum Prestaciones.EstadoSolicitud",
          "name": "estado",
          "type": "uint8"
        }
      ],
      "name": "RespuestaSolicitud",
      "type": "event"
    },
    {
      "anonymous": false,
      "inputs": [
        {
          "indexed": true,
          "internalType": "address",
          "name": "trabajador",
          "type": "address"
        },
        {
          "indexed": false,
          "internalType": "enum Prestaciones.RetiroSolicitud",
          "name": "tipo",
          "type": "uint8"
        }
      ],
      "name": "RetiroSolicitado",
      "type": "event"
    },
    {
      "anonymous": false,
      "inputs": [
        {
          "indexed": true,
          "internalType": "address",
          "name": "trabajador",
          "type": "address"
        },
        {
          "indexed": false,
          "internalType": "string",
          "name": "cedula",
          "type": "string"
        },
        {
          "indexed": false,
          "internalType": "string",
          "name": "nombre",
          "type": "string"
        },
        {
          "indexed": false,
          "internalType": "string",
          "name": "fechaIngreso",
          "type": "string"
        }
      ],
      "name": "TrabajadorRegistrado",
      "type": "event"
    },
    {
      "inputs": [],
      "name": "PORCENTAJE_MAXIMO_RETIRO",
      "outputs": [
        {
          "internalType": "uint8",
          "name": "",
          "type": "uint8"
        }
      ],
      "stateMutability": "view",
      "type": "function"
    },
    {
      "inputs": [],
      "name": "aave",
      "outputs": [
        {
          "internalType": "address",
          "name": "",
          "type": "address"
        }
      ],
      "stateMutability": "view",
      "type": "function"
    },
    {
      "inputs": [
        {
          "internalType": "address",
          "name": "_trabajador",
          "type": "address"
        }
      ],
      "name": "aceptarSolicitud",
      "outputs": [],
      "stateMutability": "nonpayable",
      "type": "function"
    },
    {
      "inputs": [],
      "name": "arbitraje",
      "outputs": [
        {
          "internalType": "bool",
          "name": "",
          "type": "bool"
        }
      ],
      "stateMutability": "view",
      "type": "function"
    },
    {
      "inputs": [],
      "name": "asset",
      "outputs": [
        {
          "internalType": "address",
          "name": "",
          "type": "address"
        }
      ],
      "stateMutability": "view",
      "type": "function"
    },
    {
      "inputs": [
        {
          "internalType": "address",
          "name": "_aave",
          "type": "address"
        },
        {
          "internalType": "address",
          "name": "_asset",
          "type": "address"
        }
      ],
      "name": "configurarStakProtocol",
      "outputs": [],
      "stateMutability": "nonpayable",
      "type": "function"
    },
    {
      "inputs": [
        {
          "internalType": "address",
          "name": "_trabajador",
          "type": "address"
        }
      ],
      "name": "consultarBalanceAave",
      "outputs": [
        {
          "internalType": "uint256",
          "name": "",
          "type": "uint256"
        }
      ],
      "stateMutability": "view",
      "type": "function"
    },
    {
      "inputs": [
        {
          "internalType": "address",
          "name": "_trabajador",
          "type": "address"
        }
      ],
      "name": "consultarIntereses",
      "outputs": [
        {
          "internalType": "uint256",
          "name": "",
          "type": "uint256"
        }
      ],
      "stateMutability": "view",
      "type": "function"
    },
    {
      "inputs": [
        {
          "internalType": "address",
          "name": "_trabajador",
          "type": "address"
        },
        {
          "internalType": "uint256",
          "name": "_monto",
          "type": "uint256"
        }
      ],
      "name": "depositarPrestaciones",
      "outputs": [],
      "stateMutability": "payable",
      "type": "function"
    },
    {
      "inputs": [],
      "name": "empresa",
      "outputs": [
        {
          "internalType": "address",
          "name": "",
          "type": "address"
        }
      ],
      "stateMutability": "view",
      "type": "function"
    },
    {
      "inputs": [
        {
          "internalType": "address",
          "name": "_trabajador",
          "type": "address"
        }
      ],
      "name": "finalizarContratacion",
      "outputs": [],
      "stateMutability": "nonpayable",
      "type": "function"
    },
    {
      "inputs": [],
      "name": "idEmpresa",
      "outputs": [
        {
          "internalType": "string",
          "name": "",
          "type": "string"
        }
      ],
      "stateMutability": "view",
      "type": "function"
    },
    {
      "inputs": [
        {
          "internalType": "uint256",
          "name": "",
          "type": "uint256"
        }
      ],
      "name": "listaTrabajadores",
      "outputs": [
        {
          "internalType": "address",
          "name": "",
          "type": "address"
        }
      ],
      "stateMutability": "view",
      "type": "function"
    },
    {
      "inputs": [],
      "name": "nombreEmpresa",
      "outputs": [
        {
          "internalType": "string",
          "name": "",
          "type": "string"
        }
      ],
      "stateMutability": "view",
      "type": "function"
    },
    {
      "inputs": [],
      "name": "obtenerTrabajadores",
      "outputs": [
        {
          "internalType": "address[]",
          "name": "",
          "type": "address[]"
        }
      ],
      "stateMutability": "view",
      "type": "function"
    },
    {
      "inputs": [
        {
          "internalType": "address",
          "name": "_trabajador",
          "type": "address"
        }
      ],
      "name": "rechazarSolicitud",
      "outputs": [],
      "stateMutability": "nonpayable",
      "type": "function"
    },
    {
      "inputs": [
        {
          "internalType": "address",
          "name": "_trabajador",
          "type": "address"
        },
        {
          "internalType": "string",
          "name": "_cedula",
          "type": "string"
        },
        {
          "internalType": "string",
          "name": "_nombre",
          "type": "string"
        },
        {
          "internalType": "string",
          "name": "_fechaIngreso",
          "type": "string"
        }
      ],
      "name": "registrarTrabajador",
      "outputs": [],
      "stateMutability": "nonpayable",
      "type": "function"
    },
    {
      "inputs": [
        {
          "internalType": "enum Prestaciones.RetiroSolicitud",
          "name": "_tipoRetiro",
          "type": "uint8"
        },
        {
          "internalType": "uint8",
          "name": "_porcentaje",
          "type": "uint8"
        }
      ],
      "name": "solicitarRetiro",
      "outputs": [],
      "stateMutability": "nonpayable",
      "type": "function"
    },
    {
      "inputs": [
        {
          "internalType": "address",
          "name": "",
          "type": "address"
        }
      ],
      "name": "solicitudesRetiro",
      "outputs": [
        {
          "internalType": "enum Prestaciones.RetiroSolicitud",
          "name": "tipo",
          "type": "uint8"
        },
        {
          "internalType": "uint8",
          "name": "porcentaje",
          "type": "uint8"
        },
        {
          "internalType": "enum Prestaciones.EstadoSolicitud",
          "name": "estado",
          "type": "uint8"
        },
        {
          "internalType": "uint256",
          "name": "fechaSolicitud",
          "type": "uint256"
        }
      ],
      "stateMutability": "view",
      "type": "function"
    },
    {
      "inputs": [
        {
          "internalType": "address",
          "name": "",
          "type": "address"
        }
      ],
      "name": "trabajadores",
      "outputs": [
        {
          "internalType": "string",
          "name": "cedula",
          "type": "string"
        },
        {
          "internalType": "string",
          "name": "nombre",
          "type": "string"
        },
        {
          "internalType": "uint256",
          "name": "saldo",
          "type": "uint256"
        },
        {
          "internalType": "uint8",
          "name": "porcentajeRetirado",
          "type": "uint8"
        },
        {
          "internalType": "uint256",
          "name": "ultimaFechaDeposito",
          "type": "uint256"
        },
        {
          "internalType": "bool",
          "name": "estatus",
          "type": "bool"
        }
      ],
      "stateMutability": "view",
      "type": "function"
    }
  ],
  "bytecode": "0x60806040526000805560006001553480156200001a57600080fd5b5060405162001b8938038062001b898339810160408190526200003d9162000144565b600280546001600160a01b0319166001600160a01b03851617905560036200006683826200025d565b5060046200007582826200025d565b5050505062000329565b634e487b7160e01b600052604160045260246000fd5b600082601f830112620000a757600080fd5b81516001600160401b0380821115620000c457620000c46200007f565b604051601f8301601f19908116603f01168101908282118183101715620000ef57620000ef6200007f565b816040528381526020925086838588010111156200010c57600080fd5b600091505b8382101562000130578582018301518183018401529082019062000111565b600093810190920192909252949350505050565b6000806000606084860312156200015a57600080fd5b83516001600160a01b03811681146200017257600080fd5b60208501519093506001600160401b03808211156200019057600080fd5b6200019e8783880162000095565b93506040860151915080821115620001b557600080fd5b50620001c48682870162000095565b9150509250925092565b600181811c90821680620001e357607f821691505b6020821081036200020457634e487b7160e01b600052602260045260246000fd5b50919050565b601f8211156200025857600081815260208120601f850160051c81016020861015620002335750805b601f850160051c820191505b8181101562000254578281556001016200023f565b5050505b505050565b81516001600160401b038111156200027957620002796200007f565b62000291816200028a8454620001ce565b846200020a565b602080601f831160018114620002c95760008415620002b05750858301515b600019600386901b1c1916600185901b17855562000254565b600085815260208120601f198616915b82811015620002fa57888601518255948401946001909101908401620002d9565b5085821015620003195787850151600019600388901b60f8161c191681555b5050505050600190811b01905550565b61185080620003396000396000f3fe60806040526004361061011f5760003560e01c8063819faf7b116100a0578063bd6f19eb11610064578063bd6f19eb14610376578063c9edc2c514610396578063cf7bddef146103b6578063e36ea299146103d6578063feac2df3146103f857600080fd5b8063819faf7b146102d55780638e34ba8e146102f55780639478d7c0146103085780639780dcbe14610336578063b1584be71461035657600080fd5b806351fe2fdb116100e757806351fe2fdb146101da57806355f207dc146101fa5780635c18461914610257578063613e18a61461027c5780636c37bea1146102a357600080fd5b80632a53f86b1461012457806336d370d31461014657806338d52e0f146101665780633ef02f55146101a35780633fef4379146101c5575b600080fd5b34801561013057600080fd5b5061014461013f3660046111e4565b610418565b005b34801561015257600080fd5b506101446101613660046111e4565b6104aa565b34801561017257600080fd5b50600654610186906001600160a01b031681565b6040516001600160a01b0390911681526020015b60405180910390f35b3480156101af57600080fd5b506101b86106ea565b60405161019a919061124c565b3480156101d157600080fd5b506101b8610778565b3480156101e657600080fd5b506101446101f5366004611302565b610785565b34801561020657600080fd5b506102476102153660046111e4565b6009602052600090815260409020805460019091015460ff808316926101008104821692620100009091049091169084565b60405161019a94939291906113d2565b34801561026357600080fd5b5061026c6108f7565b604051901515815260200161019a565b34801561028857600080fd5b50610291603281565b60405160ff909116815260200161019a565b3480156102af57600080fd5b506102c36102be3660046111e4565b61092a565b60405161019a96959493929190611406565b3480156102e157600080fd5b50600554610186906001600160a01b031681565b610144610303366004611456565b610a74565b34801561031457600080fd5b506103286103233660046111e4565b610c49565b60405190815260200161019a565b34801561034257600080fd5b50610144610351366004611480565b610cbe565b34801561036257600080fd5b506103286103713660046111e4565b610eb2565b34801561038257600080fd5b506101866103913660046114c3565b610efd565b3480156103a257600080fd5b506101446103b13660046111e4565b610f27565b3480156103c257600080fd5b50600254610186906001600160a01b031681565b3480156103e257600080fd5b506103eb610fb9565b60405161019a91906114dc565b34801561040457600080fd5b50610144610413366004611529565b61101b565b6002546001600160a01b0316331461044b5760405162461bcd60e51b81526004016104429061155c565b60405180910390fd5b6001600160a01b03811660009081526007602052604090206005015460ff166104865760405162461bcd60e51b8152600401610442906115a6565b6001600160a01b03166000908152600760205260409020600501805460ff19169055565b6002546001600160a01b031633146104d45760405162461bcd60e51b81526004016104429061155c565b6001600160a01b0381166000908152600960209081526040808320600790925282209091825460ff16600281111561050e5761050e61139b565b03610531576105258361052085610c49565b611073565b60006002820155610692565b6001825460ff1660028111156105495761054961139b565b0361057957600061055984610eb2565b90506105658482611073565b61056e84610c49565b600283015550610692565b6002825460ff1660028111156105915761059161139b565b0361069257600381015482546032916105b69160ff91821691610100909104166115f3565b60ff1611156106135760405162461bcd60e51b815260206004820152602360248201527f59612068617320726574697261646f20656c206d6178696d6f207065726d697460448201526269646f60e81b6064820152608401610442565b8154600282015460009160649161063291610100900460ff169061160c565b61063c9190611623565b90506106488482611073565b825460038301805460ff61010090930483169260009161066a918591166115f3565b92506101000a81548160ff021916908360ff16021790555061068b84610c49565b6002830155505b815462ff00001916620100001782556040516001600160a01b038416907fd54b76d56c8c47d1ead239cd8fb2070c035fb0516cea3df7c1c5dd1f9862ecae906106dd90600190611645565b60405180910390a2505050565b600480546106f790611658565b80601f016020809104026020016040519081016040528092919081815260200182805461072390611658565b80156107705780601f1061074557610100808354040283529160200191610770565b820191906000526020600020905b81548152906001019060200180831161075357829003601f168201915b505050505081565b600380546106f790611658565b6002546001600160a01b031633146107af5760405162461bcd60e51b81526004016104429061155c565b6040805160c081018252848152602080820185905260008284018190526060830181905260808301819052600160a08401526001600160a01b03881681526007909152919091208151829190819061080790826116d8565b506020820151600182019061081c90826116d8565b506040828101516002830155606083015160038301805460ff90921660ff199283161790556080840151600484015560a090930151600590920180549215159290931691909117909155600880546001810182556000919091527ff3f7a9fe364faab93b216da50a3214154f22a0a2b415b23a84c8169e8b636ee30180546001600160a01b0388166001600160a01b0319909116811790915590517ff1bbb7325b3916a41c6df54c79fe4dc0f8f7f2a5913e25bcfe4442f79fc9b10e906108e890879087908790611798565b60405180910390a25050505050565b6002546000906001600160a01b031633146109245760405162461bcd60e51b81526004016104429061155c565b50600190565b60076020526000908152604090208054819061094590611658565b80601f016020809104026020016040519081016040528092919081815260200182805461097190611658565b80156109be5780601f10610993576101008083540402835291602001916109be565b820191906000526020600020905b8154815290600101906020018083116109a157829003601f168201915b5050505050908060010180546109d390611658565b80601f01602080910402602001604051908101604052809291908181526020018280546109ff90611658565b8015610a4c5780601f10610a2157610100808354040283529160200191610a4c565b820191906000526020600020905b815481529060010190602001808311610a2f57829003601f168201915b505050506002830154600384015460048501546005909501549394919360ff91821693501686565b6002546001600160a01b03163314610a9e5760405162461bcd60e51b81526004016104429061155c565b6001600160a01b0382166000908152600760205260409020600401548290610ac99062278d006117db565b421015610b275760405162461bcd60e51b815260206004820152602660248201527f536f6c6f207365207075656465206465706f736974617220756e612076657a20604482015265616c206d657360d01b6064820152608401610442565b6001600160a01b03831660009081526007602052604090206005015460ff16610b625760405162461bcd60e51b8152600401610442906115a6565b348214610bc15760405162461bcd60e51b815260206004820152602760248201527f4d6f6e746f20792063616e7469646164206465706f736974616461206e6f20636044820152666f696e6369646560c81b6064820152608401610442565b6001600160a01b038316600090815260076020526040812060028101805491928592610bee9084906117db565b90915550610bfe90508484611123565b4260048201556040518381526001600160a01b038516907f119adf7de9a4bd30b80b0c7382be74e44ff1b7a8094df021c157413216c4ee45906020015b60405180910390a250505050565b6005546040516370a0823160e01b81526001600160a01b03838116600483015260009216906370a0823190602401602060405180830381865afa158015610c94573d6000803e3d6000fd5b505050506040513d601f19601f82011682018060405250810190610cb891906117ee565b92915050565b3360009081526007602052604090206005015460ff16610cf05760405162461bcd60e51b8152600401610442906115a6565b336000836002811115610d0557610d0561139b565b1480610d2257506001836002811115610d2057610d2061139b565b145b80610d3e57506002836002811115610d3c57610d3c61139b565b145b610d8a5760405162461bcd60e51b815260206004820152601760248201527f5469706f2064652072657469726f20696e76616c69646f0000000000000000006044820152606401610442565b6000836002811115610d9e57610d9e61139b565b03610da857606491505b60006040518060800160405280856002811115610dc757610dc761139b565b815260ff8516602082015260400160008152426020918201526001600160a01b0384166000908152600990915260409020815181549293508392829060ff19166001836002811115610e1b57610e1b61139b565b02179055506020820151815460ff9091166101000261ff0019821681178355604084015191839162ff0000191662ffff00199091161762010000836002811115610e6757610e6761139b565b021790555060608201518160010155905050816001600160a01b03167fbfdc95b32824ab5fe1e0cedbf593a5fd45226007d8feb24f2424384523ea5d9685604051610c3b9190611645565b600080610ebe83610c49565b6001600160a01b038416600090815260076020526040902060020154909150808211610eeb576000610ef5565b610ef58183611807565b949350505050565b60088181548110610f0d57600080fd5b6000918252602090912001546001600160a01b0316905081565b6002546001600160a01b03163314610f515760405162461bcd60e51b81526004016104429061155c565b6001600160a01b03811660008181526009602052604090819020805462ff000019166202000017815590519091907fd54b76d56c8c47d1ead239cd8fb2070c035fb0516cea3df7c1c5dd1f9862ecae90610fad90600290611645565b60405180910390a25050565b6060600880548060200260200160405190810160405280929190818152602001828054801561101157602002820191906000526020600020905b81546001600160a01b03168152600190910190602001808311610ff3575b5050505050905090565b6002546001600160a01b031633146110455760405162461bcd60e51b81526004016104429061155c565b600580546001600160a01b039384166001600160a01b03199182161790915560068054929093169116179055565b6002546001600160a01b0316331461109d5760405162461bcd60e51b81526004016104429061155c565b600554600654604051631a4ca37b60e21b81526001600160a01b0391821660048201526024810184905284821660448201529116906369328dec906064016020604051808303816000875af11580156110fa573d6000803e3d6000fd5b505050506040513d601f19601f8201168201806040525081019061111e91906117ee565b505050565b6002546001600160a01b0316331461114d5760405162461bcd60e51b81526004016104429061155c565b60055460065460405163e8eda9df60e01b81526001600160a01b0391821660048201526024810184905284821660448201526000606482015291169063e8eda9df90608401600060405180830381600087803b1580156111ac57600080fd5b505af11580156111c0573d6000803e3d6000fd5b505050505050565b80356001600160a01b03811681146111df57600080fd5b919050565b6000602082840312156111f657600080fd5b6111ff826111c8565b9392505050565b6000815180845260005b8181101561122c57602081850181015186830182015201611210565b506000602082860101526020601f19601f83011685010191505092915050565b6020815260006111ff6020830184611206565b634e487b7160e01b600052604160045260246000fd5b600082601f83011261128657600080fd5b813567ffffffffffffffff808211156112a1576112a161125f565b604051601f8301601f19908116603f011681019082821181831017156112c9576112c961125f565b816040528381528660208588010111156112e257600080fd5b836020870160208301376000602085830101528094505050505092915050565b6000806000806080858703121561131857600080fd5b611321856111c8565b9350602085013567ffffffffffffffff8082111561133e57600080fd5b61134a88838901611275565b9450604087013591508082111561136057600080fd5b61136c88838901611275565b9350606087013591508082111561138257600080fd5b5061138f87828801611275565b91505092959194509250565b634e487b7160e01b600052602160045260246000fd5b600381106113cf57634e487b7160e01b600052602160045260246000fd5b50565b608081016113df866113b1565b85825260ff851660208301526113f4846113b1565b60408201939093526060015292915050565b60c08152600061141960c0830189611206565b828103602084015261142b8189611206565b91505085604083015260ff8516606083015283608083015282151560a0830152979650505050505050565b6000806040838503121561146957600080fd5b611472836111c8565b946020939093013593505050565b6000806040838503121561149357600080fd5b8235600381106114a257600080fd5b9150602083013560ff811681146114b857600080fd5b809150509250929050565b6000602082840312156114d557600080fd5b5035919050565b6020808252825182820181905260009190848201906040850190845b8181101561151d5783516001600160a01b0316835292840192918401916001016114f8565b50909695505050505050565b6000806040838503121561153c57600080fd5b611545836111c8565b9150611553602084016111c8565b90509250929050565b6020808252602a908201527f536f6c6f206c6120656d7072657361207075656465207265616c697a6172206560408201526939ba309030b1b1b4b7b760b11b606082015260800190565b6020808252601c908201527f456c2074726162616a61646f72206e6f20657374612061637469766f00000000604082015260600190565b634e487b7160e01b600052601160045260246000fd5b60ff8181168382160190811115610cb857610cb86115dd565b8082028115828204841417610cb857610cb86115dd565b60008261164057634e487b7160e01b600052601260045260246000fd5b500490565b60208101611652836113b1565b91905290565b600181811c9082168061166c57607f821691505b60208210810361168c57634e487b7160e01b600052602260045260246000fd5b50919050565b601f82111561111e57600081815260208120601f850160051c810160208610156116b95750805b601f850160051c820191505b818110156111c0578281556001016116c5565b815167ffffffffffffffff8111156116f2576116f261125f565b611706816117008454611658565b84611692565b602080601f83116001811461173b57600084156117235750858301515b600019600386901b1c1916600185901b1785556111c0565b600085815260208120601f198616915b8281101561176a5788860151825594840194600190910190840161174b565b50858210156117885787850151600019600388901b60f8161c191681555b5050505050600190811b01905550565b6060815260006117ab6060830186611206565b82810360208401526117bd8186611206565b905082810360408401526117d18185611206565b9695505050505050565b80820180821115610cb857610cb86115dd565b60006020828403121561180057600080fd5b5051919050565b81810381811115610cb857610cb86115dd56fea264697066735822122020090caf0b77728f84faaa61fec67089ab5b2bfe08333e24e7c580a994095d0664736f6c63430008140033",
  "linkReferences": {},
  "deployedLinkReferences": {}
}